{
  "contractName": "SushiSwapChallenge",
  "abi": [
    {
      "inputs": [
        {
          "internalType": "contract IUniswapV2Router02",
          "name": "_sushiRouter",
          "type": "address"
        },
        {
          "internalType": "address",
          "name": "_sushi",
          "type": "address"
        },
        {
          "internalType": "address",
          "name": "_dai",
          "type": "address"
        },
        {
          "internalType": "contract IUniswapV2Factory",
          "name": "_factory",
          "type": "address"
        }
      ],
      "stateMutability": "nonpayable",
      "type": "constructor"
    },
    {
      "anonymous": false,
      "inputs": [
        {
          "indexed": false,
          "internalType": "string",
          "name": "message",
          "type": "string"
        },
        {
          "indexed": false,
          "internalType": "uint256",
          "name": "value",
          "type": "uint256"
        }
      ],
      "name": "Log",
      "type": "event"
    },
    {
      "inputs": [],
      "name": "dai",
      "outputs": [
        {
          "internalType": "address",
          "name": "",
          "type": "address"
        }
      ],
      "stateMutability": "view",
      "type": "function",
      "constant": true
    },
    {
      "inputs": [],
      "name": "deadline",
      "outputs": [
        {
          "internalType": "uint256",
          "name": "",
          "type": "uint256"
        }
      ],
      "stateMutability": "view",
      "type": "function",
      "constant": true
    },
    {
      "inputs": [],
      "name": "factory",
      "outputs": [
        {
          "internalType": "contract IUniswapV2Factory",
          "name": "",
          "type": "address"
        }
      ],
      "stateMutability": "view",
      "type": "function",
      "constant": true
    },
    {
      "inputs": [],
      "name": "masterChef",
      "outputs": [
        {
          "internalType": "contract MasterChef",
          "name": "",
          "type": "address"
        }
      ],
      "stateMutability": "view",
      "type": "function",
      "constant": true
    },
    {
      "inputs": [],
      "name": "sushi",
      "outputs": [
        {
          "internalType": "address",
          "name": "",
          "type": "address"
        }
      ],
      "stateMutability": "view",
      "type": "function",
      "constant": true
    },
    {
      "inputs": [
        {
          "internalType": "uint256",
          "name": "_amountA",
          "type": "uint256"
        },
        {
          "internalType": "uint256",
          "name": "_amountB",
          "type": "uint256"
        },
        {
          "internalType": "uint256",
          "name": "_amountAMin",
          "type": "uint256"
        },
        {
          "internalType": "uint256",
          "name": "_amountBMin",
          "type": "uint256"
        },
        {
          "internalType": "uint256",
          "name": "_pid",
          "type": "uint256"
        }
      ],
      "name": "sushiSwap",
      "outputs": [],
      "stateMutability": "nonpayable",
      "type": "function"
    }
  ],
  "bytecode": "0x60a06040526301d556006004553480156200001957600080fd5b50604051620012e7380380620012e783398181016040528101906200003f919062000188565b8373ffffffffffffffffffffffffffffffffffffffff1660808173ffffffffffffffffffffffffffffffffffffffff1660601b8152505082600260006101000a81548173ffffffffffffffffffffffffffffffffffffffff021916908373ffffffffffffffffffffffffffffffffffffffff16021790555081600360006101000a81548173ffffffffffffffffffffffffffffffffffffffff021916908373ffffffffffffffffffffffffffffffffffffffff16021790555080600160006101000a81548173ffffffffffffffffffffffffffffffffffffffff021916908373ffffffffffffffffffffffffffffffffffffffff160217905550505050506200029e565b600081519050620001548162000250565b92915050565b6000815190506200016b816200026a565b92915050565b600081519050620001828162000284565b92915050565b600080600080608085870312156200019f57600080fd5b6000620001af8782880162000171565b9450506020620001c28782880162000143565b9350506040620001d58782880162000143565b9250506060620001e8878288016200015a565b91505092959194509250565b6000620002018262000230565b9050919050565b60006200021582620001f4565b9050919050565b60006200022982620001f4565b9050919050565b600073ffffffffffffffffffffffffffffffffffffffff82169050919050565b6200025b81620001f4565b81146200026757600080fd5b50565b620002758162000208565b81146200028157600080fd5b50565b6200028f816200021c565b81146200029b57600080fd5b50565b60805160601c61101c620002cb600039600081816103840152818161045401526104eb015261101c6000f3fe608060405234801561001057600080fd5b50600436106100625760003560e01c80630a0879031461006757806329dcb0cf14610085578063575a86b2146100a3578063c45a0155146100c1578063efde8061146100df578063f4b9fa75146100fb575b600080fd5b61006f610119565b60405161007c9190610c9a565b60405180910390f35b61008d61013f565b60405161009a9190610ebc565b60405180910390f35b6100ab610145565b6040516100b89190610dd7565b60405180910390f35b6100c9610169565b6040516100d69190610dbc565b60405180910390f35b6100f960048036038101906100f49190610aa7565b61018f565b005b61010361098c565b6040516101109190610c9a565b60405180910390f35b600260009054906101000a900473ffffffffffffffffffffffffffffffffffffffff1681565b60045481565b60008054906101000a900473ffffffffffffffffffffffffffffffffffffffff1681565b600160009054906101000a900473ffffffffffffffffffffffffffffffffffffffff1681565b600085141580156101a1575060008414155b6101e0576040517f08c379a00000000000000000000000000000000000000000000000000000000081526004016101d790610df2565b60405180910390fd5b600260009054906101000a900473ffffffffffffffffffffffffffffffffffffffff1673ffffffffffffffffffffffffffffffffffffffff166323b872dd3330886040518463ffffffff1660e01b815260040161023f93929190610cde565b602060405180830381600087803b15801561025957600080fd5b505af115801561026d573d6000803e3d6000fd5b505050506040513d601f19601f820116820180604052508101906102919190610a2f565b50600360009054906101000a900473ffffffffffffffffffffffffffffffffffffffff1673ffffffffffffffffffffffffffffffffffffffff166323b872dd3330876040518463ffffffff1660e01b81526004016102f193929190610cde565b602060405180830381600087803b15801561030b57600080fd5b505af115801561031f573d6000803e3d6000fd5b505050506040513d601f19601f820116820180604052508101906103439190610a2f565b50600260009054906101000a900473ffffffffffffffffffffffffffffffffffffffff1673ffffffffffffffffffffffffffffffffffffffff1663095ea7b37f0000000000000000000000000000000000000000000000000000000000000000876040518363ffffffff1660e01b81526004016103c1929190610d93565b602060405180830381600087803b1580156103db57600080fd5b505af11580156103ef573d6000803e3d6000fd5b505050506040513d601f19601f820116820180604052508101906104139190610a2f565b50600360009054906101000a900473ffffffffffffffffffffffffffffffffffffffff1673ffffffffffffffffffffffffffffffffffffffff1663095ea7b37f0000000000000000000000000000000000000000000000000000000000000000866040518363ffffffff1660e01b8152600401610491929190610d93565b602060405180830381600087803b1580156104ab57600080fd5b505af11580156104bf573d6000803e3d6000fd5b505050506040513d601f19601f820116820180604052508101906104e39190610a2f565b5060008060007f000000000000000000000000000000000000000000000000000000000000000073ffffffffffffffffffffffffffffffffffffffff1663e8e33700600260009054906101000a900473ffffffffffffffffffffffffffffffffffffffff16600360009054906101000a900473ffffffffffffffffffffffffffffffffffffffff168b8b8b8b306004546040518963ffffffff1660e01b8152600401610596989796959493929190610d15565b606060405180830381600087803b1580156105b057600080fd5b505af11580156105c4573d6000803e3d6000fd5b505050506040513d601f19601f820116820180604052508101906105e89190610a58565b9250925092507fdd970dd9b5bfe707922155b058a407655cb18288b807e2216442bca8ad83d6b58360405161061d9190610e8e565b60405180910390a17fdd970dd9b5bfe707922155b058a407655cb18288b807e2216442bca8ad83d6b5826040516106549190610e60565b60405180910390a17fdd970dd9b5bfe707922155b058a407655cb18288b807e2216442bca8ad83d6b58160405161068b9190610e32565b60405180910390a16000600160009054906101000a900473ffffffffffffffffffffffffffffffffffffffff1673ffffffffffffffffffffffffffffffffffffffff1663e6a43905600260009054906101000a900473ffffffffffffffffffffffffffffffffffffffff16600360009054906101000a900473ffffffffffffffffffffffffffffffffffffffff166040518363ffffffff1660e01b8152600401610736929190610cb5565b60206040518083038186803b15801561074e57600080fd5b505afa158015610762573d6000803e3d6000fd5b505050506040513d601f19601f820116820180604052508101906107869190610a06565b9050600073ffffffffffffffffffffffffffffffffffffffff168173ffffffffffffffffffffffffffffffffffffffff1614156107f8576040517f08c379a00000000000000000000000000000000000000000000000000000000081526004016107ef90610e12565b60405180910390fd5b600082141561083c576040517f08c379a000000000000000000000000000000000000000000000000000000000815260040161083390610df2565b60405180910390fd5b8073ffffffffffffffffffffffffffffffffffffffff1663095ea7b360008054906101000a900473ffffffffffffffffffffffffffffffffffffffff16846040518363ffffffff1660e01b8152600401610897929190610d93565b602060405180830381600087803b1580156108b157600080fd5b505af11580156108c5573d6000803e3d6000fd5b505050506040513d601f19601f820116820180604052508101906108e99190610a2f565b5060008211156109815760008054906101000a900473ffffffffffffffffffffffffffffffffffffffff1673ffffffffffffffffffffffffffffffffffffffff1663e2bbb15886846040518363ffffffff1660e01b815260040161094e929190610ed7565b600060405180830381600087803b15801561096857600080fd5b505af115801561097c573d6000803e3d6000fd5b505050505b505050505050505050565b600360009054906101000a900473ffffffffffffffffffffffffffffffffffffffff1681565b6000815190506109c181610fa1565b92915050565b6000815190506109d681610fb8565b92915050565b6000813590506109eb81610fcf565b92915050565b600081519050610a0081610fcf565b92915050565b600060208284031215610a1857600080fd5b6000610a26848285016109b2565b91505092915050565b600060208284031215610a4157600080fd5b6000610a4f848285016109c7565b91505092915050565b600080600060608486031215610a6d57600080fd5b6000610a7b868287016109f1565b9350506020610a8c868287016109f1565b9250506040610a9d868287016109f1565b9150509250925092565b600080600080600060a08688031215610abf57600080fd5b6000610acd888289016109dc565b9550506020610ade888289016109dc565b9450506040610aef888289016109dc565b9350506060610b00888289016109dc565b9250506080610b11888289016109dc565b9150509295509295909350565b610b2781610f11565b82525050565b610b3681610f59565b82525050565b610b4581610f7d565b82525050565b6000610b58601883610f00565b91507f4e4f20505545444520534552205a45524f4f4f4f4f4f4f4f00000000000000006000830152602082019050919050565b6000610b98601083610f00565b91507f706f6f6c206e6f206578697374652121000000000000000000000000000000006000830152602082019050919050565b6000610bd8600983610f00565b91507f4c495155494445535300000000000000000000000000000000000000000000006000830152602082019050919050565b6000610c18600d83610f00565b91507f43414e54494441442044414949000000000000000000000000000000000000006000830152602082019050919050565b6000610c58600f83610f00565b91507f43414e54494441442053555348494900000000000000000000000000000000006000830152602082019050919050565b610c9481610f4f565b82525050565b6000602082019050610caf6000830184610b1e565b92915050565b6000604082019050610cca6000830185610b1e565b610cd76020830184610b1e565b9392505050565b6000606082019050610cf36000830186610b1e565b610d006020830185610b1e565b610d0d6040830184610c8b565b949350505050565b600061010082019050610d2b600083018b610b1e565b610d38602083018a610b1e565b610d456040830189610c8b565b610d526060830188610c8b565b610d5f6080830187610c8b565b610d6c60a0830186610c8b565b610d7960c0830185610b1e565b610d8660e0830184610c8b565b9998505050505050505050565b6000604082019050610da86000830185610b1e565b610db56020830184610c8b565b9392505050565b6000602082019050610dd16000830184610b2d565b92915050565b6000602082019050610dec6000830184610b3c565b92915050565b60006020820190508181036000830152610e0b81610b4b565b9050919050565b60006020820190508181036000830152610e2b81610b8b565b9050919050565b60006040820190508181036000830152610e4b81610bcb565b9050610e5a6020830184610c8b565b92915050565b60006040820190508181036000830152610e7981610c0b565b9050610e886020830184610c8b565b92915050565b60006040820190508181036000830152610ea781610c4b565b9050610eb66020830184610c8b565b92915050565b6000602082019050610ed16000830184610c8b565b92915050565b6000604082019050610eec6000830185610c8b565b610ef96020830184610c8b565b9392505050565b600082825260208201905092915050565b6000610f1c82610f2f565b9050919050565b60008115159050919050565b600073ffffffffffffffffffffffffffffffffffffffff82169050919050565b6000819050919050565b6000610f6482610f6b565b9050919050565b6000610f7682610f2f565b9050919050565b6000610f8882610f8f565b9050919050565b6000610f9a82610f2f565b9050919050565b610faa81610f11565b8114610fb557600080fd5b50565b610fc181610f23565b8114610fcc57600080fd5b50565b610fd881610f4f565b8114610fe357600080fd5b5056fea2646970667358221220f95f4fd0149044e95a82f53eda551321d49d4ec94f1681e7e3751992c6db6c9964736f6c63430008000033",
  "immutableReferences": {
    "1174": [
      {
        "length": 32,
        "start": 900
      },
      {
        "length": 32,
        "start": 1108
      },
      {
        "length": 32,
        "start": 1259
      }
    ]
  },
  "source": "// SPDX-License-Identifier: MIT\r\n\r\n\r\npragma solidity ^0.8.0;\r\n\r\nimport './interfaces/MasterChef.sol';\r\nimport './interfaces/IUniswapV2Router02.sol';\r\nimport './interfaces/IUniswapV2Pair.sol';\r\nimport './interfaces/IUniswapV2Factory.sol';\r\n\r\n\r\ncontract SushiSwapChallenge {\r\n\r\n\r\n  MasterChef public  masterChef;\r\n  IUniswapV2Router02 immutable  sushiRouter;\r\n\r\n\r\n  IUniswapV2Factory public factory;\r\n  address public sushi;\r\n  address public dai;\r\n  uint256 public deadline = 356 days; \r\n  \r\n\r\n  event Log(string message, uint value);\r\n\r\n  constructor(IUniswapV2Router02 _sushiRouter, address _sushi, address _dai, IUniswapV2Factory _factory)  {\r\n    sushiRouter = _sushiRouter;\r\n    sushi = _sushi;\r\n    dai = _dai;\r\n    factory = _factory;\r\n  }\r\n\r\n\r\n\r\n  function sushiSwap(uint _amountA, uint _amountB,uint _amountAMin, uint _amountBMin,  uint _pid) public {\r\n      \r\n      require(_amountA != 0 && _amountB != 0, \"NO PUEDE SER ZEROOOOOOOO\"); \r\n\r\n      //TRANSFER TOKEN AL CONTRATO\r\n      IERC20(sushi).transferFrom(msg.sender, address(this), _amountA);\r\n      IERC20(dai).transferFrom(msg.sender, address(this), _amountB);\r\n\r\n\r\n      //APPROVE\r\n      IERC20(sushi).approve(address(sushiRouter), _amountA);\r\n      IERC20(dai).approve(address(sushiRouter), _amountB);\r\n\r\n\r\n       //agregar liquidez y obtener token slp\r\n\r\n      (uint amountA, uint amountB, uint liquidity ) =\r\n      IUniswapV2Router02(sushiRouter)\r\n      .addLiquidity(\r\n        sushi,\r\n        dai,\r\n        _amountA,\r\n        _amountB,\r\n        _amountAMin, \r\n        _amountBMin,\r\n        address(this),\r\n        deadline  \r\n      );\r\n\r\n\r\n      emit Log(\"CANTIDAD SUSHII\", amountA);\r\n      emit Log(\"CANTIDAD DAII\", amountB);\r\n      emit Log(\"LIQUIDESS\", liquidity);\r\n\r\n\r\n      address pair = IUniswapV2Factory(factory).getPair(sushi, dai);\r\n      require(pair != address(0), \"pool no existe!!\");\r\n      \r\n      require(liquidity != 0, \"NO PUEDE SER ZEROOOOOOOO\"); \r\n\r\n      IUniswapV2Pair(pair).approve(address(masterChef), liquidity);\r\n\r\n       if(liquidity > 0){\r\n         masterChef.deposit(_pid, liquidity);\r\n      }\r\n  \r\n  }\r\n\r\n\r\n  \r\n}",
  "sourcePath": "C:\\Users\\Hp Omen\\Desktop\\Challenge\\contracts\\SushiSwapChallenge.sol",
  "compiler": {
    "name": "solc",
    "version": "0.8.0+commit.c7dfd78e.Emscripten.clang"
  },
  "schemaVersion": "3.4.3",
  "updatedAt": "2022-03-29T18:22:42.858Z",
  "networkType": "ethereum",
  "devdoc": {
    "kind": "dev",
    "methods": {},
    "version": 1
  },
  "userdoc": {
    "kind": "user",
    "methods": {},
    "version": 1
  }
}